:0400000007EF00F016
:0A0008005F826BED12F07AEF12F048
:100800000054454D503A25640A0D00004450800BB9
:100810004D6E445044244F6E43AE11EF04F013EF7D
:1008200004F014EF04F04F804F50D8B41AEF04F0E6
:100830001CEF04F031EF04F04F28D8A422EF04F0AD
:1008400024EF04F02CEF04F0000E416E000E426E17
:10085000000E436E000E446E438E000E446E39EF60
:1008600004F0000E416E000E426E000E436E000E4C
:10087000446E4850800B4E6E4D504E18D8B443EF26
:1008800004F045EF04F046EF04F04D8C4850482446
:100890004E6E47AE4EEF04F050EF04F051EF04F00F
:1008A0004E804E50D8B457EF04F059EF04F06EEF7D
:1008B00004F04E28D8A45FEF04F061EF04F069EF74
:1008C00004F0000E456E000E466E000E476E000EE0
:1008D000486E478E000E486E76EF04F0000E456EAF
:1008E000000E466E000E476E000E486E4F504E5C76
:1008F000D8B07DEF04F07FEF04F0A6EF04F04DAC2C
:1009000084EF04F086EF04F088EF04F0800E4D1AB7
:100910004FC050F04EC04FF050C04EF041C050F0AC
:1009200045C041F050C045F042C050F046C042F0D2
:1009300050C046F043C050F047C043F050C047F0AD
:1009400044C050F048C044F050C048F0000E506E13
:100950004F504EC049F04A6A495E000E4A5A4ABE9C
:10096000BBEF04F04A5009E11A0E495CD8A0BBEF76
:1009700004F0BDEF04F0F4EF04F0415042104310D6
:100980004410D8A4C6EF04F0C9EF04F0010ECAEF7A
:1009900004F0000E506E000E416E000E426E000E0E
:1009A000436E000E446E4EC04FF0FDEF04F050A0B9
:1009B000DCEF04F0DEEF04F0E4EF04F0D890503008
:1009C0000109506EE6EF04F0D890503241A0EBEFF1
:1009D00004F0EDEF04F0EEEF04F0508E44344432B6
:1009E0004332423241324F2A4E504F5CD8A0FBEF87
:1009F00004F0FDEF04F0D7EF04F04DBC02EF05F07A
:100A000004EF05F044EF05F04F50D8A40AEF05F0CD
:100A10000CEF05F016EF05F0000E416E000E426E71
:100A2000000E436E000E446E65EF06F04550412601
:100A300046504222475043224850442244A023EFCC
:100A400005F025EF05F0D1EF05F050A02AEF05F0F5
:100A50002CEF05F032EF05F0D89050300109506EC0
:100A600034EF05F0D890503241A039EF05F03BEF5C
:100A700005F03CEF05F0508E4434443243324232AC
:100A800041324F2AD1EF05F04550415C4650425863
:100A9000475043584450800A496E4850800A49588C
:100AA000D8B055EF05F057EF05F082EF05F0415053
:100AB000455C496E425046584A6E435047584B6E0B
:100AC000445048584C6EFF0E4924416EFF0E4A2098
:100AD000426EFF0E4B20436EFF0E4C20446E800E84
:100AE0004D1A506C5050D8A478EF05F07AEF05F00D
:100AF0008AEF05F0010E4126000E422243224422D5
:100B00008AEF05F04550415E4650425A4750435ADD
:100B10004850445A4150421043104410D8A493EF17
:100B200005F095EF05F0CAEF05F05050D8A49BEF03
:100B300005F09DEF05F0CAEF05F0000E416E000EC6
:100B4000426E000E436E000E446E65EF06F0D890C4
:100B5000413642364336443650AEB1EF05F0B3EF7E
:100B600005F0B4EF05F0418050A0B9EF05F0BBEF00
:100B700005F0BFEF05F0D8805036C1EF05F0D890F2
:100B800050364F50D8B4C7EF05F0C9EF05F0CAEFA3
:100B900005F04F0643AECFEF05F0D1EF05F0A7EF1C
:100BA00005F0000E4E6E50AED8EF05F0DAEF05F00E
:100BB000F2EF05F050C049F07F0E4916D8B4E3EFCC
:100BC00005F0E5EF05F0E9EF05F0010E4E6EF2EFEE
:100BD00005F041A0EEEF05F0F0EF05F0F2EF05F0C3
:100BE000E5EF05F04E50D8B4F8EF05F0FAEF05F058
:100BF00025EF06F0010E4126000E42224322442238
:100C000044A005EF06F007EF06F025EF06F041C01F
:100C100049F042C04AF043C04BF044C04CF04C3461
:100C20004C324B324A32493249C041F04AC042F05C
:100C30004BC043F04CC044F04F28D8B422EF06F02C
:100C400024EF06F025EF06F04F2A4F28D8B42BEFFB
:100C500006F02DEF06F035EF06F04F50D8A433EF35
:100C600006F035EF06F047EF06F0000E416E000E7D
:100C7000426E000E436E000E446E4F50D8A443EFF8
:100C800006F045EF06F047EF06F0000E4D6E4FA060
:100C90004CEF06F04EEF06F051EF06F0438E52EFA8
:100CA00006F0439ED8904F30446E4DAE5AEF06F09A
:100CB0005CEF06F05DEF06F0448E41C041F042C0AB
:100CC00042F043C043F044C044F012001250800B85
:100CD0001B6E12501224216E11AE71EF06F073EFED
:100CE00006F074EF06F021802150D8B47AEF06F0B8
:100CF0007CEF06F08FEF06F02128D8A482EF06F0F3
:100D000084EF06F08CEF06F0000E0F6E000E106EF2
:100D1000000E116E000E126E118E97EF06F0000E8F
:100D20000F6E000E106E000E116E000E126E165039
:100D3000800B1B1A16501624206E15AEA2EF06F07B
:100D4000A4EF06F0A5EF06F020802050D8B4ABEF5A
:100D500006F0ADEF06F0C0EF06F02028D8A4B3EF00
:100D600006F0B5EF06F0BDEF06F0000E136E000EB4
:100D7000146E000E156E000E166E158EC8EF06F07E
:100D8000000E136E000E146E000E156E000E166E21
:100D90002050D8B4CEEF06F0D0EF06F0D8EF06F032
:100DA0002150D8A4D6EF06F0D8EF06F0E2EF06F017
:100DB000000E0F6E000E106E000E116E000E126E01
:100DC0007AEF08F015500F02F3CF26F0F4CF27F09A
:100DD00026501C6E1D6A1E6A1F6A2750226E236AE7
:100DE000246A256A14501002F3CF26F0F4CF27F0BE
:100DF00026501C26000E1D221E221F2227502226AE
:100E0000000E23222422252213501102F3CF26F0B4
:100E1000F4CF27F026501C26000E1D221E221F2272
:100E200027502226000E2322242225221EC01FF036
:100E30001DC01EF01CC01DF01C6A13501002F3CF21
:100E400026F0F4CF27F026501C2627501D22000E36
:100E50001E22000E1F2214500F02F3CF26F0F4CFF3
:100E600027F026501C2627501D22000E1E22000EA1
:100E70001F221EC01FF01DC01EF01CC01DF01C6AEA
:100E800013500F02F3CF26F0F4CF27F026501C2684
:100E900027501D22000E1E22000E1F221550100288
:100EA000F3CF26F0F4CF27F0265022262750232216
:100EB000000E2422000E252214501102F3CF26F03A
:100EC000F4CF27F02650222627502322000E24227A
:100ED000000E252215501102F3CF26F0F4CF27F093
:100EE0002650176E2750186E196A1A6A19C01AF020
:100EF00018C019F017C018F0176A1750222618509A
:100F00002322195024221A5025221CC017F01DC07C
:100F100018F01EC019F01FC01AF0190E95EF07F057
:100F2000D8901A32193218321732E82E90EF07F0A3
:100F30001750222618502322195024221A502522F5
:100F40001EC01FF01DC01EF01CC01DF01C6A2050EA
:100F500021C017F0186A1726000E1822820E1724D7
:100F6000266EFF0E1820276ECBEF07F0D8902236A2
:100F70002336243625361FAEC0EF07F0C2EF07F048
:100F8000C3EF07F02280D8901C361D361E361F3660
:100F90002606D8A0270624AED0EF07F0D2EF07F040
:100FA000B6EF07F0000E206E1FAED9EF07F0DBEFB3
:100FB00007F0FFEF07F0FF0E1C14176EFF0E1D1455
:100FC000186EFF0E1E14196E7F0E1F141A6E175026
:100FD000181019101A10D8B4F0EF07F0F2EF07F05C
:100FE000F6EF07F0010E206EFFEF07F022A0FBEFF7
:100FF00007F0FDEF07F0FFEF07F0F2EF07F02050EA
:10100000D8B405EF08F007EF08F02BEF08F0010E59
:101010002226000E23222422252225A012EF08F0EA
:1010200014EF08F02BEF08F022C017F023C018F0DF
:1010300024C019F025C01AF01A341A3219321832A5
:10104000173217C022F018C023F019C024F01AC0BC
:1010500025F0264A272A27BE36EF08F0275008E158
:101060002628D8A036EF08F038EF08F042EF08F055
:10107000000E226E000E236E800E246E7F0E256EF3
:1010800070EF08F027BE4FEF08F0275006E1260466
:10109000D8B04DEF08F04FEF08F05BEF08F0000E0E
:1010A000226E000E236E000E246E000E256E000EC2
:1010B0001B6E70EF08F026C021F0FF0E2216FF0E07
:1010C00023167F0E2416000E251621A06AEF08F0C5
:1010D0006CEF08F06DEF08F0248ED8902130256E6B
:1010E0001B50251222C00FF023C010F024C011F0B5
:1010F00025C012F012002B50800B386E2B502B2481
:101100003F6E2AAE86EF08F088EF08F089EF08F00E
:101110003F803F50D8B48FEF08F091EF08F0A6EF72
:1011200008F03F28D8A497EF08F099EF08F0A1EF56
:1011300008F0000E286E000E296E000E2A6E000EBA
:101140002B6E2A8E000E2B6EAEEF08F0000E286E6E
:10115000000E296E000E2A6E000E2B6E2F50800B93
:10116000381A2F502F24406E2EAEB9EF08F0BBEF87
:1011700008F0BCEF08F040804050D8B4C2EF08F04F
:10118000C4EF08F0D9EF08F04028D8A4CAEF08F05F
:10119000CCEF08F0D4EF08F0000E2C6E000E2D6E90
:1011A000000E2E6E000E2F6E2E8E000E2F6EE1EFB3
:1011B00008F0000E2C6E000E2D6E000E2E6E000E2E
:1011C0002F6E2C502D102E102F10D8A4EAEF08F0FF
:1011D000ECEF08F004EF09F0000E286E000E296E07
:1011E000000E2A6E000E2B6E800E2A127F0E2B121E
:1011F00038502B1228C028F029C029F02AC02AF024
:101200002BC02BF047EF0AF03F50D8A40AEF09F0AB
:101210000CEF09F016EF09F0000E286E000E296E93
:10122000000E2A6E000E2B6E47EF0AF040503FC0B2
:1012300030F0316A305E000E315A7F0E3024396E44
:10124000000E31203A6E28C034F029C035F02AC093
:1012500036F02BC037F0000E286E000E296E000EFF
:101260002A6E000E2B6E000E3B6E000E3C6E000EC2
:101270003D6E000E3E6E000E406E77EF09F040505E
:10128000D8B445EF09F047EF09F05EEF09F0D890C8
:101290003436353636363736D890283629362A361B
:1012A0002B363EAE56EF09F058EF09F059EF09F032
:1012B0002880D8903B363C363D363E362C50345C48
:1012C0002D5035582E5036582F503758D8A06BEF28
:1012D00009F06DEF09F076EF09F03E8C2C50345E8A
:1012E0002D50355A2E50365A2F50375A402A190E43
:1012F00040647DEF09F07FEF09F03FEF09F03450D3
:10130000351036103710D8B488EF09F08AEF09F09D
:10131000A2EF09F03B80A2EF09F0D89028362936D9
:101320002A362B363EAE97EF09F099EF09F09AEF87
:1013300009F02880D8903B363C363D363E3639069B
:10134000D8A03A062AAEA7EF09F0A9EF09F08DEF71
:1013500009F0000E406E3EAEB0EF09F0B2EF09F0BA
:10136000D6EF09F0FF0E3B14306EFF0E3C14316EC9
:10137000FF0E3D14326E7F0E3E14336E305031102E
:1013800032103310D8B4C7EF09F0C9EF09F0CDEF30
:1013900009F0010E406ED6EF09F028A0D2EF09F057
:1013A000D4EF09F0D6EF09F0C9EF09F04050D8B4F6
:1013B000DCEF09F0DEEF09F002EF0AF0010E28265B
:1013C000000E29222A222B222BA0E9EF09F0EBEFB5
:1013D00009F002EF0AF028C030F029C031F02AC02D
:1013E00032F02BC033F033343332323231323032D8
:1013F00030C028F031C029F032C02AF033C02BF0C1
:10140000394A3A2A3ABE0DEF0AF03A5008E1392833
:10141000D8A00DEF0AF00FEF0AF01AEF0AF0000E55
:101420003A6E3968000E286E000E296E000E2A6E84
:10143000000E2B6E3ABE27EF0AF03A5006E139044F
:10144000D8B025EF0AF027EF0AF035EF0AF0000ECA
:101450003A6E000E396E000E286E000E296E000ED8
:101460002A6E000E2B6E000E386E39C03FF03FA082
:101470003CEF0AF03EEF0AF041EF0AF02A8E42EF0D
:101480000AF02A9ED8903F302B6EF8EF08F0120039
:101490001EC034F01FC035F020C036F021C037F038
:1014A00022C038F023C039F024C03AF025C03BF008
:1014B0003BBE5DEF0AF060EF0AF0010E61EF0AF04B
:1014C000000E3E6E3E50D8B468EF0AF06AEF0AF0A4
:1014D0007AEF0AF03B1E3A1E391E381E371E361EA2
:1014E000351E346C000E352236223722382239223E
:1014F0003A223B2200016BBF88EF0AF06B5106E1F4
:101500006A05D8B086EF0AF088EF0AF08EEF0AF08D
:10151000000E316E010E306E92EF0AF06AC030F0AC
:101520006BC031F068C032F069C033F03E50D8B4BF
:101530009CEF0AF09EEF0AF0B5EF0AF03206D8A051
:1015400033063E50D8A4A7EF0AF0A9EF0AF0AFEF98
:101550000AF0000E2F6E2B0E2E6EB3EF0AF0000E67
:101560002F6E2D0E2E6E2EC03EF0000E3D6E1F0E05
:101570003C6E000E956F39EF0BF03C06D8A03D068F
:10158000760E3C24D96E000E3D20DA6E34C001F098
:1015900035C002F036C003F037C004F038C005F0A3
:1015A00039C006F03AC007F03BC008F00A0E096ED9
:1015B000000E0A6E000E0B6E000E0C6E000E0D6E0D
:1015C000000E0E6E000E0F6E000E106EFAEC0DF097
:1015D00001C026F002C027F003C028F004C029F0A3
:1015E00005C02AF006C02BF007C02CF008C02DF073
:1015F00026C013F027C014F014EC12F01350300F73
:10160000DF6E3006D8A031063206D8A0330634C0CB
:1016100001F035C002F036C003F037C004F038C026
:1016200005F039C006F03AC007F03BC008F00A0EDA
:10163000096E000E0A6E000E0B6E000E0C6E000E90
:101640000D6E000E0E6E000E0F6E000E106E36EC5C
:101650000DF001C034F002C035F003C036F004C014
:1016600037F005C038F006C039F007C03AF008C0BE
:101670003BF03DBE44EF0BF03D5008E13C04D8A0E8
:1016800044EF0BF046EF0BF062EF0BF034503510E7
:1016900036103710381039103A103B10D8A453EFD9
:1016A0000BF055EF0BF0BDEF0AF031BE62EF0BF01F
:1016B000315006E13004D8B060EF0BF062EF0BF070
:1016C000BDEF0AF03E50D8B468EF0BF06AEF0BF0B4
:1016D00075EF0BF03C06D8A03D06760E3C24D96E83
:1016E000000E3D20DA6E3EC0DFFF1CC011F01DC0B1
:1016F00012F0760E3C24136E000E3D20146E32C0A4
:1017000015F033C016F065EC11F01200096E0950A7
:10171000D8B48DEF0BF08FEF0BF0B1EF0BF004BEF0
:1017200096EF0BF094EF0BF0B1EF0BF001C005F06A
:1017300002C006F003C007F004C008F0051E061E34
:10174000071E081E052A000E06220722082205C0D1
:101750000BF006C00CF007C00DF008C00EF0B9EF9A
:101760000BF001C00BF002C00CF003C00DF004C080
:101770000EF00150021003100410D8A4C2EF0BF0B9
:10178000C4EF0BF0CEEF0BF0000E016E000E026EF8
:10179000000E036E000E046E5FEF0CF0960E0A6EE4
:1017A000D8EF0BF00A2AD8900E320D320C320B32E1
:1017B000000E0B14056E000E0C14066E000E0D14B8
:1017C000076EFE0E0E14086E055006100710081066
:1017D000D8A4EDEF0BF0EFEF0BF0D2EF0BF0FDEF35
:1017E0000BF00A2A010E0B26000E0C220D220E22EF
:1017F000D8900E320D320C320B32000E0B14056EE7
:10180000000E0C14066E000E0D14076EFF0E0E1463
:10181000086E0550061007100810D8A412EF0CF03F
:1018200014EF0CF0F1EF0BF01CEF0CF00A06D8905F
:101830000B360C360D360E360DBE21EF0CF023EFB5
:101840000CF02BEF0CF0020E0A6029EF0CF02BEFDE
:101850000CF016EF0CF00AB030EF0CF032EF0CF099
:1018600033EF0CF00D9ED8900A320AC005F0066ADC
:10187000076A086A05C008F0076A066A056A055023
:101880000B1206500C1207500D1208500E12095080
:10189000D8B44DEF0CF04FEF0CF057EF0CF004BE46
:1018A00056EF0CF054EF0CF057EF0CF00E8E0BC00F
:1018B00001F00CC002F00DC003F00EC004F01200E5
:1018C000A7EC12F0800E5B6E250E5C6E000E5D6E56
:1018D000000E5E6E11EC11F0000E936EF28EF28C23
:1018E0009D8A9E9A1E0E9EEC12F00E0EA3EC12F034
:1018F000000E8A6E000E34EC12F001500001756F7C
:10190000960E596E000E5A6E010E5B6E080E5C6EDE
:1019100075C05DF05E6AA2EC11F0960E026E000ECC
:10192000036E53EC12F01F0E0001C26F710EC16FF7
:101930001E0EE82EFED7C12FFCD7C22FFAD700F01B
:10194000DAEF0CF08A807AEF0CF08A907AEF0CF0E4
:101950008A827AEF0CF08A927AEF0CF08A847AEF1E
:101960000CF08A947AEF0CF08A867AEF0CF08A9663
:101970007AEF0CF08A887AEF0CF08A987AEF0CF004
:101980008A8A7AEF0CF08A9A7AEF0CF08A8C7AEFD6
:101990000CF08A9C7AEF0CF08A8E7AEF0CF08A9E1B
:1019A0007AEF0CF041EC10F07AEF0CF0D6EC0FF07F
:1019B0007AEF0CF000017351C16FC26BC251000A83
:1019C000D8B4E5EF0CF07AEF0CF0C151410AD8B46D
:1019D000A2EF0CF0030AD8B4A5EF0CF0010AD8B4BA
:1019E000A8EF0CF0070AD8B4ABEF0CF0010AD8B49A
:1019F000AEEF0CF0030AD8B4B1EF0CF0010AD8B482
:101A0000B4EF0CF00F0AD8B4B7EF0CF0010AD8B459
:101A1000BAEF0CF0030AD8B4BDEF0CF0010AD8B449
:101A2000C0EF0CF0070AD8B4C3EF0CF0010AD8B429
:101A3000C6EF0CF0030AD8B4C9EF0CF0010AD8B411
:101A4000CCEF0CF01F0AD8B4CFEF0CF0010AD8B4D9
:101A5000D2EF0CF0030AD8B4D6EF0CF0010AD8B4D8
:101A600078EF0CF07AEF0CF007EF00F0000E126E3A
:101A700010BE3FEF0DF03DEF0DF051EF0DF0101ED9
:101A80000F1E0E1E0D1E0C1E0B1E0A1E096C000ED4
:101A90000A220B220C220D220E220F221022010EEE
:101AA000126E08BE58EF0DF056EF0DF06AEF0DF014
:101AB000081E071E061E051E041E031E021E016CC4
:101AC000000E0222032204220522062207220822F7
:101AD000010E121A20EE13F0070EDE6AE806FDE290
:101AE00009500A100B100C100D100E100F101010D2
:101AF000D8B47DEF0DF07FEF0DF0D1EF0DF0010EBA
:101B0000116E8DEF0DF0D89009360A360B360C3673
:101B10000D360E360F361036112A10AE92EF0DF03C
:101B200094EF0DF083EF0DF0D89013361436153680
:101B300016361736183619361A360950015C0A500F
:101B400002580B5003580C5004580D5005580E50B5
:101B500006580F50075810500858D8A0B2EF0DF093
:101B6000B4EF0DF0C5EF0DF00950015E0A50025AB6
:101B70000B50035A0C50045A0D50055A0E50065A79
:101B80000F50075A1050085A1380D89010320F3255
:101B90000E320D320C320B320A320932112E94EF12
:101BA0000DF01250D8B4D7EF0DF0D9EF0DF0E9EFEA
:101BB0000DF01A1E191E181E171E161E151E141EB5
:101BC000136C000E14221522162217221822192235
:101BD0001A2213C001F014C002F015C003F016C0A1
:101BE00004F017C005F018C006F019C007F01AC0BD
:101BF00008F01200000E126E08BE03EF0EF001EFA7
:101C00000EF015EF0EF0081E071E061E051E041E20
:101C1000031E021E016C000E022203220422052272
:101C2000062207220822010E126E10BE1CEF0EF0D3
:101C30001AEF0EF02CEF0EF0101E0F1E0E1E0D1ED2
:101C40000C1E0B1E0A1E096C000E0A220B220C220F
:101C50000D220E220F22102209500A100B100C1018
:101C60000D100E100F101010D8B439EF0EF03BEF1E
:101C70000EF083EF0EF0010E116E49EF0EF0D890CA
:101C800009360A360B360C360D360E360F36103640
:101C9000112A10AE4EEF0EF050EF0EF03FEF0EF0A7
:101CA0000950015C0A5002580B5003580C5004585C
:101CB0000D5005580E5006580F5007581050085830
:101CC000D8A065EF0EF067EF0EF077EF0EF0095039
:101CD000015E0A50025A0B50035A0C50045A0D5020
:101CE000055A0E50065A0F50075A1050085AD890ED
:101CF00010320F320E320D320C320B320A320932F0
:101D0000112E50EF0EF01250D8B489EF0EF08BEF79
:101D10000EF09BEF0EF0081E071E061E051E041E89
:101D2000031E021E016C000E022203220422052261
:101D300006220722082201C001F002C002F003C0FF
:101D400003F004C004F005C005F006C006F007C0AB
:101D500007F008C008F0120041C0D9FF42C0DAFF06
:101D6000DECFF6FFDDCFF7FF0800F550250AD8A437
:101D7000BCEF0EF0BEEF0EF03EEF0FF041C0D9FF0A
:101D800042C0DAFFDE2A000EDD22000E0001696F7C
:101D9000000E686F68C070F06A696B6941C0D9FF56
:101DA00042C0DAFFDECF4FF0DDCF50F04FC0F6FF7C
:101DB00050C0F7FF0800F550640AD8B4E2EF0EF007
:101DC000E4EF0EF0F2EF0EF04FC0F6FF50C0F7FF59
:101DD0000800F550690AD8A4F0EF0EF0F2EF0EF00B
:101DE00035EF0FF043C0D9FF44C0DAFFDFCF45F035
:101DF000020EDE26DFCF46F0000EDD2245C0D9FF01
:101E000046C0DAFFDECF47F0DDCF48F0000E48BE17
:101E1000FF0E496E4A6E4B6E4C6E4D6E4E6E010E4D
:101E20004F24456E000E5020466E41C0D9FF42C07F
:101E3000DAFF45C0DEFF46C0DDFF3FC01CF040C0FA
:101E40001DF047C01EF048C01FF049C020F04AC036
:101E500021F04BC022F04CC023F04DC024F04EC006
:101E600025F048EC0AF052EF0FF041C0D9FF42C014
:101E7000DAFFDE2A000EDD2252EF0FF041C0D9FF5B
:101E800042C0DAFFDECFF6FFDDCFF7FF0800F550E6
:101E9000016E026A3FC003F040C004F0ACEC10F0E9
:101EA00035EF0FF01200533454345A6E5A50D8A400
:101EB0005CEF0FF05EEF0FF068EF0FF0000E516E69
:101EC000000E526E000E536E000E546ED5EF0FF0E2
:101ED00051C055F052C056F053C057F054C058F09E
:101EE000200E78EF0FF0D8905832573256325532D4
:101EF000E82E73EF0FF05550596E538EFF0E5116AA
:101F0000FF0E5216FF0E5316000E5416960E5A5E12
:101F10005ABE8FEF0FF08DEF0FF0A5EF0FF05A5074
:101F2000800A970FD8B097EF0FF099EF0FF09BEF63
:101F30000FF05EEF0FF0D8905432533252325132DC
:101F40005A3E9BEF0FF0BDEF0FF01F0E5A64ABEF40
:101F50000FF0ADEF0FF0B5EF0FF05EEF0FF0D89090
:101F600051365236533654365A065A50D8A4BBEF1F
:101F70000FF0BDEF0FF0AFEF0FF05950D8B4C3EF33
:101F80000FF0C5EF0FF0CDEF0FF0541E531E521E91
:101F9000516C000E52225322542251C051F052C0B3
:101FA00052F053C053F054C054F012008A7E040E15
:101FB000026E0C0E016E340EE82EFED7012EFCD7F9
:101FC000022EFAD78A7C040E026E0C0E016E340EBD
:101FD000E82EFED7012EFCD7022EFAD78A7A040EFD
:101FE000026E0C0E016E340EE82EFED7012EFCD7C9
:101FF000022EFAD78A78040E026E0C0E016E340E91
:10200000E82EFED7012EFCD7022EFAD78A76040ED0
:10201000026E0C0E016E340EE82EFED7012EFCD798
:10202000022EFAD78A74040E026E0C0E016E340E64
:10203000E82EFED7012EFCD7022EFAD78A72040EA4
:10204000026E0C0E016E340EE82EFED7012EFCD768
:10205000022EFAD78A70040E026E0C0E016E340E38
:10206000E82EFED7012EFCD7022EFAD7530E000120
:102070007319D8B43EEF10F040EF10F0D6EF0FF028
:1020800012008A70040E026E0C0E016E340EE82EE1
:10209000FED7012EFCD7022EFAD78A72040E026EEA
:1020A0000C0E016E340EE82EFED7012EFCD7022E48
:1020B000FAD78A74040E026E0C0E016E340EE82EEE
:1020C000FED7012EFCD7022EFAD78A76040E026EB6
:1020D0000C0E016E340EE82EFED7012EFCD7022E18
:1020E000FAD78A78040E026E0C0E016E340EE82EBA
:1020F000FED7012EFCD7022EFAD78A7A040E026E82
:102100000C0E016E340EE82EFED7012EFCD7022EE7
:10211000FAD78A7C040E026E0C0E016E340EE82E85
:10212000FED7012EFCD7022EFAD78A7E040E026E4D
:102130000C0E016E340EE82EFED7012EFCD7022EB7
:10214000FAD7530E00017319D8B4A9EF10F0ABEF12
:1021500010F041EF10F0120003500410D8B4B3EFA8
:1021600010F0B5EF10F0BEEF10F003500410D8A43B
:10217000BCEF10F0BEEF10F0C3EF10F00150AAEC6E
:1021800012F010EF11F020EE09F00350D9260450A0
:10219000DA22DE50DE10D8B4D0EF10F0D2EF10F01B
:1021A000EDEF10F020EE09F00350D9260450DA22AA
:1021B00010EE03F00350E1260450E222DE50E65C0C
:1021C000E650800A096EDE50800A0958D8B0EBEF5D
:1021D00010F0EDEF10F010EF11F020EE03F00350CF
:1021E000D9260450DA22DECF05F0DDCF06F003C099
:1021F000D9FF04C0DAFFDECF07F0DDCF08F00550CD
:102200000724D96E06500820DA6E01C0DFFF20EEE9
:1022100003F00350D9260450DA22DE2A000EDD2214
:102220001200949C948E000E456E000E466E800E39
:10223000476EBF0E486E000E136E000E146E800EB9
:10224000156E420E166E5BC001F05CC002F05DC000
:1022500003F05EC004F0000E86EC0BF001C00FF03E
:1022600002C010F003C011F004C012F066EC06F0DA
:102270000FC02CF010C02DF011C02EF012C02FF0A6
:10228000000E286E1B0E296E370E2A6E4C0E2B6E1A
:102290007BEC08F028C041F029C042F02AC043F08E
:1022A0002BC044F006EC04F041C051F042C052F0A3
:1022B00043C053F044C054F053EC0FF05150AF6E94
:1022C000200EAC6E900EAB6E120016BE6AEF11F0CF
:1022D0006CEF11F072EF11F015C01AF016C01BF080
:1022E00076EF11F0000E1B6E000E1A6E000E196EC6
:1022F000000E186E88EF11F0000E026E200E016EB7
:1023000011C003F012C004F0ACEC10F0184A192A06
:102310001A50185C1950800A176E1B50800A175803
:10232000D8A095EF11F097EF11F07CEF11F013C0EA
:102330000AF014C00BF011C00CF012C00DF0F2EC5A
:1023400011F012005D0E0001B46F000EB56F59C0A0
:10235000B6F05AC0B7F0000EBA6F000EB96F000E9B
:10236000C06F000EBF6FB60E516E000E526E5BC096
:1023700053F05CC054F0B40E556E000E566ECBECAC
:1023800011F00001B9515924D96EBA515A20DA6EB0
:10239000000EDF6E120053C057F054C058F0DFEF4C
:1023A00011F051C03FF052C040F0570E416E000E88
:1023B000426E55C043F056C044F0ACEC0EF057C02E
:1023C000F6FF58C0F7FF0800F5500009D8A4EBEF5E
:1023D00011F0EDEF11F0D1EF11F0000E526E000E82
:1023E000516E1200000E106E000E0F6E03EF12F011
:1023F0000EC001F0026A0CC003F00DC004F0ACEC9A
:1024000010F00F4A102A0F500A24D96E10500B20DA
:10241000DA6EDF500E6E0E50D8A411EF12F013EFEB
:1024200012F0F8EF11F0120014BE21EF12F0145068
:1024300006E11304D8B01FEF12F021EF12F02FEFD6
:1024400012F013C015F014C016F0151E161E154A12
:10245000162A15C013F016C014F033EF12F013C093
:1024600013F014C014F01200056E05C003F003460B
:102470000346C2500318C30B0318C26EC280C28247
:10248000C2B245EF12F047EF12F040EF12F0C35026
:10249000C4CF03F0046A03C004F0036A0310016EA2
:1024A0000450026E12005EEF12F002C0D9FF03C0AA
:1024B000DAFFDF5093EC12F0024A032A02C0D9FF80
:1024C00003C0DAFFDF50D8A468EF12F06AEF12F011
:1024D00055EF12F0120006009EAA71EF12F073EF92
:1024E00012F078EF12F09E9A87EC12F00001736FF1
:1024F0005F92110000EE60F0540EEE6AE806FDE116
:102500005F905F92000EF86E000160EF0CF0ABB2CE
:102510008CEF12F08EEF12F091EF12F0AB9800F00A
:10252000AB88AE501200016E01C0ADFFACA29BEFB4
:1025300012F09DEF12F096EF12F01200016E0150B2
:102540008009C06E1200016E01C0C1FF1200700E42
:06255000D36E1200120020
:020000040020DA
:08000000FFFFFFFFFFFFFFFF00
:020000040030CA
:0E000000210E1F1EFF8181FF0FC00FE00F4079
:00000001FF
